:0300000002000EED
:0C000E00787FE4F6D8FD758114020055DF
:1001DD00438E805389F0758A20758CD1C28DD28C57
:0501ED00D2A9D2AF22EF
:03000B0002009A56
:10009A00C0E0C0F0C083C082C0D075D000C000C02C
:1000AA0001C002C003C004C005C006C00712014750
:1000BA000514D007D006D005D004D003D002D00151
:0D00CA00D000D0D0D082D083D0F0D0E03272
:1000D70012023C1201DD1201A4E514C3940A40F98F
:1000E7001201C7E511540FF50FE511C4540FF50EB2
:1000F700E512540FF50CE512C4540FF50BE5135434
:0C0107000FF509E513C4540FF50880CD76
:100206008D80EFC43354E0FFE5A0541F4FF5A05393
:03021600A01F2204
:0E023C007DFF7F04120206E4FD7F050202062C
:100179003F065B4F666D7D077F6F777C395E7971CE
:100189000040761E7038375C733E783D6750376E95
:0B019900BF86DBCFE6EDFD87FFEF46E1
:0A022C000808101010101010101038
:100147007DFF7F07120206AF107401A8070880021F
:10015700C333D8FCFD7F06120206AF1005107408E2
:100167002FF8E690017993F4FD7F071202065310EA
:0201770007225D
:05023600031155042036
:10021900E4FEC297EF1392A3EFC313FFD2970EBE6A
:0202290008F0DB
:01022B0022B0
:1001F200C29300C29700D29300120219AF051202F5
:0402020019C2932268
:10011300E4FDC29300C29700D29300120219E4FFD8
:10012300C297EDC313FD30A303430580D2970FBFDE
:1001330008EEC29300C29700D29700C2A300D2A3D5
:0301430000AF0505
:010146002296
:1001A400E4FD7F8E1201F2AD117F801201F2AD12D7
:1001B4007F821201F2AD137F841201F27D807F8E63
:0301C4000201F243
:1001C7007F811201138F117F831201138F127F8595
:0601D7001201138F132238
:10001A000200D7E493A3F8E493A34003F68001F225
:10002A0008DFF48029E493A3F85407240CC8C333E7
:10003A00C4540F4420C8834004F456800146F6DFB6
:10004A00E4800B010204081020408090022CE47E18
:10005A00019360BCA3FF543F30E509541FFEE493AB
:10006A00A360010ECF54C025E060A840B8E493A372
:10007A00FAE493A3F8E493A3C8C582C8CAC583CA9D
:10008A00F0A3C8C582C8CAC583CADFE9DEE780BE55
:01023B0000C2
:00000001FF
