:03000000020236C3
:0C023600787FE4F6D8FD75812002027D7F
:1004B100438E805389F0758A20758CD1C28DD28C80
:0504C100D2A9D2AF2218
:03000B0002034AA3
:10034A00C0E0C0F0C083C082C0D075D000C000C079
:10035A0001C002C003C004C005C006C0071203CA18
:10036A0005110513E51370020512D007D006D00552
:10037A00D004D003D002D001D000D0D0D082D08314
:05038A00D0F0D0E032CC
:1002C2001204D91204B1E511C3940A40F9E4F511FC
:1002D200E51394F4E5129401401012038F8F178EE8
:1002E200168D158C14E4F512F513AF17AE16AD1575
:1002F200AC14120152AB07AA067C007D0A1201D38C
:100302008D0F7C007D0AAF03AE021201D37C007D0B
:100312000A1201D38D0EAF17AE16AD15AC14120131
:1003220052AB07AA067C007D641201D37C007D0AD1
:100332001201D3ED2420F50D7C037DE8AF03AE025C
:080342001201D38F0C0202C866
:1004C6008D80EFC43354E0FFE5A0541F4FF5A053D1
:0304D600A01F2242
:0E04D9007DFF7F041204C6E4FD7F050204C609
:1003FC003F065B4F666D7D077F6F777C395E797149
:10040C000040761E7038375C733E783D6750376E0F
:0B041C00BF86DBCFE6EDFD87FFEF465B
:0A04E700080810101010101010107B
:1003CA007DFF7F071204C6AF107401A807088002D8
:1003DA00C333D8FCFD7F061204C6AF10051074089B
:1003EA002FF8E69003FC93F4FD7F071204C653101E
:0203FA000722D8
:020427008F192B
:10042900E4F51AC294E519139294120497D294E54B
:1004390019C313F519051AE51AC3940840E57F0590
:050449007E0002049B8F
:10047500E4F519C294E51AC313F51AD2943094031E
:10048500431A801204970519E519C3940840E4AF8F
:010495001A4C
:010496002243
:10044E00C200D2947F0C7E0012049BC2947F507E19
:10045E000012049BD2947F0A7E0012049BA29492F7
:06046E0000120497A20039
:010474002265
:10038F0012044E7FCC1204277F441204277FC87EAD
:10039F000012049B12044E7FCC1204277FBE12045E
:1003AF00271204758F18120475EFAD18FCE41201B3
:0B03BF0019E4FBFA79C8784002000E38
:040497007F057E005F
:10049B00EF1FAA0670011E4A600BE4FDEDC3940C1E
:0504AB0050EE0D80F78A
:0104B0002229
:10000E00EC4D6011E8497017ED33EC3304600DE4EC
:10001E00FCFFFEFD22E933E8330470F80201BE1244
:10002E00018958046009E4CC248150062850090245
:10003E0001C82840030201C5C0E0EB4A7044B980F4
:10004E0006D0E0FB0201B4EF4E701CBD8008EBFF42
:10005E00EAFEE9FD80EBE98DF0A4FEE5F00200F783
:10006E00E9CDF9EAFEEBFFEF89F0A4FCE5F0CE89CD
:10007E00F0A42EFFE435F0CD89F0A42DFEE435F08A
:10008E008067EF4E7005BD80D780C3EF8BF0A4ACB8
:10009E00F0EE8BF0A42CFCE435F0F8EF8AF0A42CF3
:1000AE00E5F038FCE433CB8DF0A42CFCE5F03BF806
:1000BE00EE8AF0A42CFCE5F038F8E433CF89F0A4F6
:1000CE002CFCE5F038CF3400CE89F0A42FFFE5F0FC
:1000DE003EFEE433C98DF0A42EFEE5F039CD8AF054
:1000EE00A42FFFE5F03EFEE43DFD33D0E0FB5007CC
:1000FE000BBB000F0201C8EC2CFCEF33FFEE33FEFE
:06010E00ED33FD0201A02B
:1001140075F020800E75F010800575F0087D007E66
:10012400007F003392D530D503120228EC334010FF
:10013400EF33FFEE33FEED33FDEC33FCD5F0ED226F
:0E014400E5F0247EA2D513CC92E7CDCEFF22AB
:10015200EDD2E7CD33EC3392D524814006E4FFFEA5
:10016200FDFC22FCE4CFCECDCC24E0501174FF8004
:10017200EDC3CC13CCCD13CDCE13CECF13CF0470A1
:07018200F030D5DE02022877
:10018900E9D2E7C933E833F892D5EDD2E7CD33ECBC
:0701990033FC5002B2D52235
:1001A000EC30E7100FBF000C0EBE00080DBD0004C0
:1001B0000BEB6014A2D5EB13FCED92E7FD2274FF6C
:1001C000FCFDFEFF22E480F8A2D574FF13FC7D80C5
:0301D000E480EFD9
:100242000202C2E493A3F8E493A34003F68001F20E
:1002520008DFF48029E493A3F85407240CC8C333BD
:10026200C4540F4420C8834004F456800146F6DF8C
:10027200E4800B01020408102040809004E7E47E31
:10028200019360BCA3FF543F30E509541FFEE49381
:10029200A360010ECF54C025E060A840B8E493A348
:1002A200FAE493A3F8E493A3C8C582C8CAC583CA73
:1002B200F0A3C8C582C8CAC583CADFE9DEE780BE2B
:0104F100000A
:1001D300BC000BBE0029EF8DF084FFADF022E4CC10
:1001E300F875F008EF2FFFEE33FEEC33FCEE9DECD9
:1001F300984005FCEE9DFE0FD5F0E9E4CEFD22ED1F
:10020300F8F5F0EE8420D21CFEADF075F008EF2F68
:10021300FFED33FD4007985006D5F0F222C398FD59
:050223000FD5F0EA22F6
:0E022800C3E49FFFE49EFEE49DFDE49CFC22E7
:00000001FF
